:100000000C942A000C9447000C9447000C94470071
:100010000C9447000C9447000C9447000C94470044
:100020000C9447000C9447000C9447000C94470034
:100030000C9418070C94220A0C94D30A0C944700D1
:100040000C9447000C9447000C9447000C94470014
:100050000C94470011241FBECFE5D8E0DEBFCDBF12
:1000600010E0A0E6B0E0ECEBF9E102C005900D92E3
:10007000A236B107D9F720E0A2E6B0E001C01D9298
:10008000AC36B207E1F70E941C0B0C94DC0C0C940C
:100090000000CF93DF9300D000D0CDB7DEB78A83C6
:1000A0006B834C8381E089838B81883008F0A6C004
:1000B0008A81882F90E08330910509F47AC08430DA
:1000C00091050CF099C08230910509F44FC083303E
:1000D00091050CF091C0009719F0019721F18CC0A7
:1000E0008AE390E0FC018081482F8B81282F30E04B
:1000F00081E090E002C0880F991F2A95E2F7809571
:1001000048238C81882F90E02B81222F30E002C081
:10011000880F991F2A95E2F7242F282B8AE390E075
:10012000FC0120836CC087E390E0FC018081482FB4
:100130008B81282F30E081E090E002C0880F991F6A
:100140002A95E2F7809548238C81882F90E02B81B7
:10015000222F30E002C0880F991F2A95E2F7242F42
:10016000282B87E390E0FC01208349C084E390E0E2
:10017000FC018081482F8B81282F30E081E090E0C6
:1001800002C0880F991F2A95E2F7809548238C8139
:10019000882F90E02B81222F30E002C0880F991F1A
:1001A0002A95E2F7242F282B84E390E0FC0120839A
:1001B00026C081E390E0FC018081482F8B81282FAD
:1001C00030E081E090E002C0880F991F2A95E2F7A5
:1001D000809548238C81882F90E02B81222F30E05E
:1001E00002C0880F991F2A95E2F7242F282B81E35C
:1001F00090E0FC01208303C0198201C0198289812B
:100200000F900F900F900F90DF91CF910895CF93A3
:10021000DF9300D00F92CDB7DEB78A836B8381E086
:1002200089838A81882F90E08330910501F18430A1
:1002300091051CF582309105A1F083309105ECF415
:10024000009719F0019739F018C08AE390E02B81EC
:10025000FC01208314C08AE390E02B81FC01208301
:100260000EC08AE390E02B81FC01208308C08AE362
:1002700090E02B81FC01208302C01982000089815B
:100280000F900F900F90DF91CF910895CF93DF9350
:1002900000D000D0CDB7DEB78A836B834C8381E07A
:1002A00089838B81883008F0A6C08A81882F90E0EE
:1002B0008330910509F47AC0843091050CF099C01F
:1002C0008230910509F44FC0833091050CF091C044
:1002D000009719F0019721F18CC08BE390E0FC01AD
:1002E0008081482F8B81282F30E081E090E002C090
:1002F000880F991F2A95E2F7809548238C81882FD3
:1003000090E02B81222F30E002C0880F991F2A95A0
:10031000E2F7242F282B8BE390E0FC0120836CC0B4
:1003200088E390E0FC018081482F8B81282F30E00A
:1003300081E090E002C0880F991F2A95E2F780952E
:1003400048238C81882F90E02B81222F30E002C03F
:10035000880F991F2A95E2F7242F282B88E390E035
:10036000FC01208349C085E390E0FC018081482F97
:100370008B81282F30E081E090E002C0880F991F28
:100380002A95E2F7809548238C81882F90E02B8175
:10039000222F30E002C0880F991F2A95E2F7242F00
:1003A000282B85E390E0FC01208326C082E390E0C7
:1003B000FC018081482F8B81282F30E081E090E084
:1003C00002C0880F991F2A95E2F7809548238C81F7
:1003D000882F90E02B81222F30E002C0880F991FD8
:1003E0002A95E2F7242F282B82E390E0FC0120835A
:1003F00003C0198201C0198289810F900F900F905C
:100400000F90DF91CF910895CF93DF9300D00F929B
:10041000CDB7DEB78A836B8381E089838A81882F99
:1004200090E08330910501F1843091051CF5823014
:100430009105A1F083309105ECF4009719F0019734
:1004400039F018C08BE390E02B81FC01208314C0AD
:1004500088E390E02B81FC0120830EC085E390E0CF
:100460002B81FC01208308C082E390E02B81FC01FA
:10047000208302C01982000089810F900F900F9095
:10048000DF91CF910895CF93DF9300D000D00F92EA
:10049000CDB7DEB78A836B835D834C8381E089832C
:1004A0008B81883008F06DC08A81882F90E083307E
:1004B000910509F44FC0843091050CF060C0823082
:1004C000910599F1833091050CF059C0009719F00E
:1004D0000197B1F054C089E390E0FC018081882F3E
:1004E00090E02B81222F30E002C0959587952A95C8
:1004F000E2F7282F21708C819D81FC01208342C06E
:1005000086E390E0FC018081882F90E02B81222FF0
:1005100030E002C0959587952A95E2F7282F217043
:100520008C819D81FC0120832DC083E390E0FC0140
:100530008081882F90E02B81222F30E002C095959A
:1005400087952A95E2F7282F21708C819D81FC01E7
:10055000208318C080E390E0FC018081882F90E028
:100560002B81222F30E002C0959587952A95E2F7DE
:10057000282F21708C819D81FC01208303C019826A
:1005800001C0198289810F900F900F900F900F90EA
:10059000DF91CF910895CF93DF9300D000D0CDB7F6
:1005A000DEB78A837C836B8381E089838A81882F8D
:1005B00090E08330910549F1843091057CF58230DB
:1005C0009105D1F0833091054CF5009719F0019712
:1005D00051F024C089E390E0FC0120818B819C8153
:1005E000FC0120831DC086E390E0FC0120818B810B
:1005F0009C81FC01208314C083E390E0FC012081F6
:100600008B819C81FC0120830BC080E390E0FC0186
:1006100020818B819C81FC01208302C01982000013
:1006200089810F900F900F900F90DF91CF910895D7
:10063000CF93DF9300D000D0CDB7DEB78A836B8332
:100640004C8381E089838B81883008F0A6C08A8141
:10065000882F90E08330910509F47AC084309105A9
:100660000CF099C08230910509F44FC08330910598
:100670000CF091C0009719F0019721F18CC08BE329
:1006800090E0FC018081482F8B81282F30E081E0B1
:1006900090E002C0880F991F2A95E2F780954823C1
:1006A0008C81882F90E02B81222F30E002C0880FB0
:1006B000991F2A95E2F7242F282B8BE390E0FC0169
:1006C00020836CC088E390E0FC018081482F8B81FF
:1006D000282F30E081E090E002C0880F991F2A9512
:1006E000E2F7809548238C81882F90E02B81222F80
:1006F00030E002C0880F991F2A95E2F7242F282B9B
:1007000088E390E0FC01208349C085E390E0FC0190
:100710008081482F8B81282F30E081E090E002C05B
:10072000880F991F2A95E2F7809548238C81882F9E
:1007300090E02B81222F30E002C0880F991F2A956C
:10074000E2F7242F282B85E390E0FC01208326C0CC
:1007500082E390E0FC018081482F8B81282F30E0DC
:1007600081E090E002C0880F991F2A95E2F78095FA
:1007700048238C81882F90E02B81222F30E002C00B
:10078000880F991F2A95E2F7242F282B82E390E007
:10079000FC01208303C0198201C0198289810F9056
:1007A0000F900F900F90DF91CF910895CF93DF932B
:1007B00000D00F92CDB7DEB78A836B8381E0898347
:1007C0008A81882F90E08330910501F18430910572
:1007D0001CF582309105A1F083309105ECF400976F
:1007E00019F0019739F018C08BE390E02B81FC01E0
:1007F000208314C088E390E02B81FC0120830EC08D
:1008000085E390E02B81FC01208308C082E390E027
:100810002B81FC01208302C01982000089810F9086
:100820000F900F90DF91CF910895CF93DF9300D079
:10083000CDB7DEB78A8381E089838DE290E0FC0149
:1008400020818DE290E02F7DFC0120838DE290E0FD
:10085000FC0120818DE290E02860FC0120838DE284
:1008600090E0FC0120818DE290E02460FC01208377
:1008700041E065E081E00E94490040E066E081E0FF
:100880000E94490041E067E081E00E94490041E0A8
:1008900064E081E00E94490041E067E081E00E945D
:1008A00046018DE290E0FC0120818DE290E0206124
:1008B000FC0120838DE290E0FC0120818DE290E03C
:1008C0002E7FFC0120838DE290E0FC0120818DE2EF
:1008D00090E02D7FFC0120838EE290E0FC012081DE
:1008E0008EE290E02E7FFC0120838A818330B0F578
:1008F0008DE290E0FC018081882F90E09C012C7FAC
:1009000033278A81882F90E083709927282B392BF1
:100910008DE290E0FC018081982F822F292F282BD7
:100920008DE290E0FC0120838A81843048F08EE2E1
:1009300090E0FC0120818EE290E02160FC012083A8
:100940008DE290E0FC0120818DE290E02064FC01CA
:100950002083109263001092620001C01982898185
:100960000F900F90DF91CF910895CF93DF930F9267
:10097000CDB7DEB781E089838DE290E0FC01208174
:100980008DE290E02F7DFC0120838DE290E0FC0160
:1009900020818DE290E02860FC0120838DE290E0D0
:1009A000FC0120818DE290E02460FC01208340E086
:1009B00065E081E00E94490041E066E081E00E943C
:1009C000490040E067E081E00E94490040E064E0C7
:1009D00081E00E9449008DE290E0FC0120818DE2DF
:1009E00090E02F7EFC0120838DE290E0FC012081CD
:1009F0008DE290E02064FC0120831092650010924B
:100A0000640089810F90DF91CF910895CF93DF9398
:100A100000D00F92CDB7DEB789837B836A838DE2E6
:100A200090E0FC0120818DE290E02F77FC01208393
:100A30008FE290E02981FC01208340E064E081E0C6
:100A40000E9446018DE290E0FC0120818DE290E061
:100A50002064FC01208300008EE290E0FC01808194
:100A6000881F8827881F882F90E081709927019719
:100A700099F78FE290E0FC0120818A819B81FC0143
:100A800020838DE290E0FC0120818DE290E02F7BBD
:100A9000FC01208341E064E081E00E944601000007
:100AA0000F900F900F90DF91CF910895CF93DF9328
:100AB00000D00F92CDB7DEB789837B836A838DE246
:100AC00090E0FC0120818DE290E02F77FC012083F3
:100AD0008FE290E02981FC0120838DE290E0FC010F
:100AE00020818DE290E02064FC01208300008EE2F2
:100AF00090E0FC018081881F8827881F882F90E064
:100B000081709927019799F78FE290E0FC0120818D
:100B10008A819B81FC0120838DE290E0FC01208191
:100B20008DE290E02F7BFC01208300000F900F905E
:100B30000F90DF91CF910895CF93DF9300D00F9264
:100B4000CDB7DEB789837B836A83809160008A306A
:100B500071F58FE590E0FC0120818FE590E0206841
:100B6000FC0120838A819B819093630080936200C3
:100B70008DE290E0FC0120818DE290E02068FC0194
:100B800020838FE290E02981FC01208340E064E033
:100B900081E00E94460181E0809360008DE290E058
:100BA000FC0120818DE290E02064FC0120830000A4
:100BB0000F900F900F90DF91CF910895CF93DF9317
:100BC00000D00F92CDB7DEB789837B836A83809193
:100BD00060008A3041F58FE590E0FC0120818FE5CF
:100BE00090E02068FC0120838A819B8190936500BE
:100BF000809364008DE290E0FC0120818DE290E022
:100C00002068FC012083109260008FE290E029812F
:100C1000FC0120838DE290E0FC0120818DE290E0D8
:100C20002064FC01208300000F900F900F90DF9153
:100C3000CF910895CF93DF93CDB7DEB7A8970FB6C6
:100C4000F894DEBF0FBECDBF9A8B898B7C8B6B8BEC
:100C50001A821982A1C029893A8989819A81820FD1
:100C6000931FDC012C918B899C89BC01822F0E94EF
:100C70009C0589819A8101969A83898380E090E01E
:100C8000A0E8BFE38B839C83AD83BE8320E030E08C
:100C90004AE755E46B817C818D819E810E94470CDF
:100CA000698F7A8F8B8F9C8F898D9A8DAB8DBC8D40
:100CB0008F839887A987BA8720E030E040E85FE318
:100CC0006F81788589859A850E94C10B88232CF4D1
:100CD00081E090E09C878B8754C020E03FEF4FE796
:100CE00057E46F81788589859A850E94420C181691
:100CF000D4F520E030E040E251E46B817C818D81CD
:100D00009E810E94470C6D8F7E8F8F8F98A38D8D53
:100D10009E8DAF8DB8A18D8B9E8BAF8BB88F6D895B
:100D20007E898F89988D0E94C60B69A37AA38BA3B5
:100D30009CA3A9A1BAA1BC87AB8710C080E991E0B0
:100D40009E878D878D859E850197F1F79E878D877C
:100D500000008B859C8501979C878B878B859C8564
:100D6000892B61F719C06F81788589859A850E94E2
:100D7000C60B6DA37EA38FA398A7EDA1FEA1FC8750
:100D8000EB878B859C85988B8F878F8598890197BA
:100D9000F1F7988B8F87000029893A8989819A8198
:100DA000820F931FDC018C91882309F054CF00003F
:100DB0000000A8960FB6F894DEBF0FBECDBFDF913E
:100DC000CF910895CF93DF9300D000D000D0CDB75E
:100DD000DEB79C838B837E836D831A82198213C056
:100DE0002B813C8189819A81820F931FFC01208194
:100DF0008D819E81BC01822F0E94DE0589819A81AE
:100E000001969A8389832B813C8189819A81820F03
:100E1000931FFC018081882319F7000000002696AB
:100E20000FB6F894DEBF0FBECDBFDF91CF9108950E
:100E30001F920F920FB60F9211242F933F934F934F
:100E40005F936F937F938F939F93AF93BF93EF9332
:100E5000FF93CF93DF93CDB7DEB7809160008130F1
:100E600049F58091620090916300892B09F442C09A
:100E700020916200309163008FE290E0FC0180815C
:100E8000F90109958DE290E0FC0120818DE290E06E
:100E90002F7BFC0120838DE290E0FC0120818DE21C
:100EA00090E02F77FC01208341E064E081E00E9424
:100EB000460120C0809160008823E1F48DE290E03B
:100EC000FC0120818DE290E02F77FC0120832091AE
:100ED0006400309165008FE290E0FC018081F901AF
:100EE00009958DE290E0FC0120818DE290E02F7B5E
:100EF000FC0120838AE0809360000000DF91CF91A5
:100F0000FF91EF91BF91AF919F918F917F916F91E1
:100F10005F914F913F912F910F900FBE0F901F90B7
:100F200018952F923F924F925F926F927F928F927D
:100F30009F92AF92BF92CF92DF92EF92FF920F9368
:100F40001F93CF93DF9300D000D00F92CDB7DEB7C1
:100F50009D838C8381E089838C819D81FC018081CC
:100F60009181A281B3814C015D01C12CD12C76010C
:100F7000282D392D4A2D5B2D6C2D7D2D8E2D9F2DED
:100F800004E00E94A80B222E332E442E552E662EEE
:100F9000772E882E992EA22CB32CC42CD52CE62C7F
:100FA000F72C082D192D20E032E14AE750E060E0EF
:100FB00070E080E090E00E944B0B822E932EA42ED6
:100FC000B52EC62ED72EE82EF92E082D192D2A2D36
:100FD0003B2D4C2D5D2D6E2D7F2DC80101979B83E0
:100FE0008A838A819B818F3F910509F030F489E2E1
:100FF00090E02A81FC01208316C080E490E0FC018F
:10100000208180E490E02F77FC0120838A819B81FE
:10101000292F332780E490E0FC01208389E290E0CF
:101020002A81FC01208380E490E0FC01208180E49F
:1010300090E02068FC01208380E490E0FC012081A6
:1010400080E490E02F7DFC01208380E490E0FC01AF
:10105000208180E490E02F7EFC01208380E490E0FA
:10106000FC01208180E490E0277FFC01208380E464
:1010700090E0FC01208180E490E02F7BFC01208344
:10108000109267008C819D81FC0184818823E1F4AA
:1010900080E490E0FC01208180E490E02D7FFC0161
:1010A000208380E490E0FC01208180E490E02B7FAD
:1010B000FC0120838AE290E0FC0120818AE290E03A
:1010C0002B7FFC01208395C08C819D81FC01848154
:1010D000813029F58AE290E0FC0120818AE290E0EB
:1010E0002861FC01208380E490E0FC01208180E401
:1010F00090E02268FC01208380E490E0FC012081E4
:1011000080E490E02B7FFC0120838AE290E0FC01E8
:1011100020818AE290E02B7FFC0120836AC08C81D1
:101120009D81FC018481823029F58AE290E0FC01F6
:1011300020818AE290E02861FC01208380E490E035
:10114000FC01208180E490E02468FC01208380E49D
:1011500090E0FC01208180E490E02D7FFC01208361
:101160008AE290E0FC0120818AE290E02B7FFC0182
:1011700020833FC08C819D81FC018481833099F460
:101180008AE290E0FC0120818AE290E02861FC0183
:10119000208380E490E0FC01208180E490E02668D8
:1011A000FC01208326C08C819D81FC0184818730D5
:1011B000F9F48AE290E0FC0120818AE290E0246068
:1011C000FC0120838AE290E0FC0120818AE290E029
:1011D0002861FC01208380E490E0FC01208180E410
:1011E00090E02668FC01208381E08093670001C0C5
:1011F00019828C819D81FC018581809366008C81A0
:101200009D81FC018581813051F48FE590E0FC01E6
:1012100020818FE590E02068FC0120831AC08C813A
:101220009D81FC018581882399F48AE290E0FC018C
:1012300020818AE290E02F77FC0120838AE290E00F
:10124000FC0120818AE290E02F7DFC01208301C017
:10125000198289810F900F900F900F900F90DF915E
:10126000CF911F910F91FF90EF90DF90CF90BF90A3
:10127000AF909F908F907F906F905F904F903F9036
:101280002F900895CF93DF9300D00F92CDB7DEB7A4
:101290009B838A8381E0898300008BE290E0FC01DC
:1012A0008081829586958770882F90E0817099273C
:1012B000019799F7809167008130E1F480E490E034
:1012C000FC018081382F3F7B8A819B81892F992760
:1012D00086958295880F880F807C282F207480E463
:1012E00090E0232BFC0120838CE290E02A81FC011A
:1012F000208305C08CE290E02A81FC012083898153
:101300000F900F900F90DF91CF910895CF93DF93BF
:1013100000D00F92CDB7DEB79B838A8381E08983AB
:101320008AE290E0FC0120818AE290E02061FC01E9
:10133000208300008BE290E0FC018081881F8827D9
:10134000881F882F90E081709927019799F70000F6
:101350008BE290E0FC018081829586958770882FD2
:1013600090E081709927019799F78091670081300B
:1013700041F58A819B81FC01808191819C013D7FA7
:1013800080E490E0FC018081881F8827881F882FD7
:1013900090E0982F8827990F88279270282B392B57
:1013A0008A819B81FC01318320838CE290E0FC01E7
:1013B0008081282F30E08A819B81FC01318320834A
:1013C0000BC08CE290E0FC018081282F30E08A8104
:1013D0009B81FC013183208389810F900F900F90B6
:1013E000DF91CF910895CF93DF9300D00F92CDB7C7
:1013F000DEB79B838A8381E089838A819B81892BE5
:10140000C9F08AE290E0FC0120818AE290E020614C
:10141000FC0120838AE290E0FC0120818AE290E0D6
:101420002068FC0120838A819B8190936B008093CC
:101430006A0001C0198289810F900F900F90DF918F
:10144000CF9108951F920F920FB60F9211242F93F0
:101450003F934F935F936F937F938F939F93AF933C
:10146000BF93EF93FF93CF93DF9300D0CDB7DEB759
:1014700080916A0090916B00892B09F44FC0809194
:101480006700813069F589819A819C013D7F80E404
:1014900090E0FC018081881F8827881F882F90E0BA
:1014A000982F8827990F88279270822B932B9A83E5
:1014B000898300008BE290E0FC0180818295869513
:1014C0008770882F90E081709927019799F78CE2B7
:1014D00090E0FC018081882F90E09A83898316C078
:1014E00000008BE290E0FC018081829586958770F8
:1014F000882F90E081709927019799F78CE290E00E
:10150000FC018081882F90E09A83898320916A0072
:1015100030916B0089819A81F901099500000F9043
:101520000F90DF91CF91FF91EF91BF91AF919F917C
:101530008F917F916F915F914F913F912F910F907C
:101540000FBE0F901F901895CF93DF9300D00F928E
:10155000CDB7DEB79B838A8381E089838A819B81B3
:10156000892BC9F08AE290E0FC0120818AE290E0B8
:101570002860FC0120838A819B819093690080937D
:1015800068008AE290E0FC0120818AE290E020621B
:10159000FC01208301C0198289810F900F900F9068
:1015A000DF91CF9108951F920F920FB60F921124E1
:1015B0002F933F938F939F93EF93FF93CF93DF935B
:1015C000CDB7DEB78091680090916900FC01208161
:1015D00031818CE290E0FC01208300008BE290E0FE
:1015E000FC0180818295869586958370882F90E096
:1015F00081709927019791F78BE290E0FC0120819F
:101600008BE290E02064FC0120838AE290E0FC0100
:1016100020818AE290E02F7DFC0120830000DF9191
:10162000CF91FF91EF919F918F913F912F910F90CB
:101630000FBE0F901F901895CF93DF9300D0CDB7BA
:10164000DEB70E94B50485E390E0FC01808141E0B3
:1016500062E00E944900CE010296BC0189810E948D
:1016600056058A81813349F488E390E0FC0180814A
:1016700041E060E00E944601EECF8A81803359F755
:1016800088E390E0FC01808140E060E00E94460138
:10169000E2CF689401C0E8948F929F92CF93DF933A
:1016A0000E94570BDF91CF919F908F9008958824CF
:1016B0009924F401E401B0E49F93AA279A158B04BE
:1016C0009C04ED05FE05CF05D007A10798F4AD2FCA
:1016D000DC2FCF2FFE2FE92D982C892E982F872FC6
:1016E000762F652F542F432F322F2227B85031F7F2
:1016F000BF9127C01B2EBF91BB27220F331F441F52
:10170000551F661F771F881F991F881C991CEE1F85
:10171000FF1FCC1FDD1FAA1FBB1F8A149B04EC05F3
:10172000FD05CE05DF05A007B10748F08A189B0824
:10173000EC09FD09CE09DF09A00BB10B21601A9459
:10174000E1F62EF49401AF01BE01CD01000C089525
:10175000002E083090F0982F872F762F652F542F6A
:10176000432F322F22270850F4CF220F331F441F5C
:10177000551F661F771F881F991F0A95B2F7002D06
:1017800008950E94F50B08F481E008950E94210C51
:1017900088F09F5798F0B92F9927B751B0F0E1F032
:1017A000660F771F881F991F1AF0BA95C9F714C0E2
:1017B000B13091F00E943B0CB1E008950C943B0CC9
:1017C000672F782F8827B85F39F0B93FCCF386951B
:1017D00077956795B395D9F73EF490958095709578
:1017E00061957F4F8F4F9F4F0895990F0008550FB8
:1017F000AA0BE0E8FEEF16161706E807F907C0F097
:1018000012161306E407F50798F0621B730B840B9E
:10181000950B39F40A2661F0232B242B252B21F478
:1018200008950A2609F4A140A6958FEF811D811D18
:10183000089557FD9058440F551F59F05F3F71F0C0
:101840004795880F97FB991F61F09F3F79F0879527
:101850000895121613061406551FF2CF4695F1DFB0
:1018600008C0161617061806991FF1CF8695710540
:10187000610508940895E894BB2766277727CB0174
:1018800097F908950E94F50B08F48FEF08950E94D0
:101890005A0C0C94CB0C0E94BD0C38F00E94C40C66
:1018A00020F0952311F00C94B40C0C94BA0C112474
:1018B0000C943C0C0E94190C70F3959FC1F3950F8A
:1018C00050E0551F629FF001729FBB27F00DB11DC4
:1018D000639FAA27F00DB11DAA1F649F6627B00D54
:1018E000A11D661F829F2227B00DA11D621F739F3D
:1018F000B00DA11D621F839FA00D611D221F749F4B
:101900003327A00D611D231F849F600D211D822F91
:10191000762F6A2F11249F5750409AF0F1F08823B8
:101920004AF0EE0FFF1FBB1F661F771F881F9150E5
:101930005040A9F79E3F510580F00C94B40C0C94D4
:101940003C0C5F3FE4F3983ED4F38695779567951A
:10195000B795F795E7959F5FC1F7FE2B880F911D0F
:101960009695879597F9089597F99F6780E870E0B5
:1019700060E008959FEF80EC089500240A94161605
:10198000170618060906089500240A94121613066D
:10199000140605060895092E0394000C11F48823FB
:1019A00052F0BB0F40F4BF2B11F460FF04C06F5F17
:0C19B0007F4F8F4F9F4F0895F894FFCF9A
:0219BC000A001F
:00000001FF
